:100000000C942A000C9447000C9447000C94470071
:100010000C9447000C9447000C9447000C94470044
:100020000C9447000C9447000C9447000C94470034
:100030000C9447000C9447000C9447000C94470024
:100040000C9447000C9447000C9447000C94470014
:100050000C94470011241FBECFE5D8E0DEBFCDBF12
:1000600011E0A0E6B0E0E2E3FFE202C005900D92ED
:10007000A43AB107D9F712E0A4EAB1E001C01D9299
:10008000AC30B107E1F70E945D140C9497170C9403
:100090000000EF92FF920F931F937B018C0120E0F1
:1000A00030E040E05FE40E94F50388238CF0C80153
:1000B000B70120E030E040E05FE40E94C1010E940F
:1000C000B3049B01AC01205030404040504806C072
:1000D000C801B7010E94B3049B01AC01B901CA0178
:1000E0001F910F91FF90EF900895A0E0B0E0EBE733
:1000F000F0E00C946017DC012B01FA019C91923026
:1001000008F439C1EB018881823008F433C194309E
:1001100069F4843009F02FC111969C91119789815F
:10012000981709F428C1AFE7B0E025C1843009F47D
:1001300021C18230A9F4923009F01DC19A01AD01AC
:1001400088E0EA010990AE01E90109929E0181501F
:10015000C1F7E201898111969C918923818308C1AD
:10016000923009F407C112962D903C901397EB0141
:100170008A819B811496AD90BD90CD90DC901797AD
:10018000EC80FD800E811F819101281B390BB90184
:1001900037FF04C066277727621B730B6032710537
:1001A0000CF061C0121613066CF537014801062EDB
:1001B00004C096948794779467940A94D2F721E0C8
:1001C00030E040E050E004C0220F331F441F551FB1
:1001D0006A95D2F721503040404050402E213F21B7
:1001E00040235123211531054105510521F021E01E
:1001F00030E040E050E079018A01E628F72808293C
:1002000019293CC0232BD1F1260E371E350146019A
:10021000062E04C096948794779467940A94D2F734
:1002200021E030E040E050E004C0220F331F441FC3
:10023000551F6A95D2F721503040404050402A2146
:100240003B214C215D21211531054105510521F04E
:1002500021E030E040E050E059016A01A628B728CB
:10026000C828D9280BC0821593052CF01C01AA249C
:10027000BB24650103C0EE24FF24870111969C91E5
:10028000D20111968C91981709F445C0992339F041
:10029000A80197012A193B094C095D0906C0A6016E
:1002A00095012E193F09400B510B57FD08C01182D3
:1002B0003382228224833583468357831DC081E0A5
:1002C00081833382228288279927DC01821B930B4A
:1002D000A40BB50B84839583A683B7830DC0220F2F
:1002E000331F441F551F24833583468357838281E0
:1002F000938101979383828324813581468157813D
:10030000DA01C9010197A109B1098F5F9F4FAF4F72
:10031000BF4328F30BC0918333822282EA0CFB1C7B
:100320000C1D1D1DE482F5820683178383E0808304
:10033000248135814681578157FF1AC0C901AA27F8
:1003400097FDA095BA2F81709070A070B0705695EF
:10035000479537952795822B932BA42BB52B848318
:100360009583A683B7838281938101969383828349
:10037000DF0101C0D201CD01CDB7DEB7E2E10C94BF
:100380007C17A0E2B0E0E7ECF1E00C946C17698315
:100390007A838B839C832D833E834F835887E9E048
:1003A000EE2EF12CEC0EFD1ECE010196B7010E943F
:1003B0002B068E010F5E1F4FCE010596B8010E94DD
:1003C0002B068A8991E089278A8BC701B801AE0183
:1003D000475E5F4F0E9475000E945605A096E6E0BA
:1003E0000C948817A0E2B0E0E8EFF1E00C946C17F1
:1003F00069837A838B839C832D833E834F835887C5
:10040000F9E0EF2EF12CEC0EFD1ECE010196B701A6
:100410000E942B068E010F5E1F4FCE010596B8017C
:100420000E942B06C701B801AE01475E5F4F0E94D4
:1004300075000E945605A096E6E00C948817A0E28D
:10044000B0E0E5E2F2E00C94601769837A838B8375
:100450009C832D833E834F835887CE010196BE0136
:10046000675F7F4F0E942B06CE010596BE016F5E2F
:100470007F4F0E942B069985923088F089898230BF
:10048000C8F0943019F4823051F404C0843029F457
:10049000923081F48FE790E0C6C0923049F420E0BA
:1004A0009A858A89981321E02A87CE010996BBC0D4
:1004B000823049F420E09A858A89981321E02A8BBA
:1004C000CE014196B0C02D843E844F8458886D88FB
:1004D0007E888F88988CEE24FF248701AA24BB2471
:1004E000650140E050E060E070E0E0E0F0E0C10174
:1004F00081709070892BE9F0E60CF71C081D191D1E
:100500009A01AB012A0D3B1D4C1D5D1D80E090E062
:10051000A0E0B0E0E614F7040805190520F481E036
:1005200090E0A0E0B0E0BA01A901480F591F6A1F8E
:100530007B1FAA0CBB1CCC1CDD1C97FE08C081E0F5
:1005400090E0A0E0B0E0A82AB92ACA2ADB2A3196B6
:10055000E032F10549F0660C771C881C991C569412
:10056000479437942794C3CFFA85EA892B893C892D
:100570008B859C85280F391F2E5F3F4F17C0CA01FE
:1005800081709070892B61F016950795F794E79428
:1005900080E090E0A0E0B0E8E82AF92A0A2B1B2BC3
:1005A00076956795579547952F5F3F4F77FDE7CF36
:1005B0000CC0440F551F661F771F17FD4160EE0CDE
:1005C000FF1C001F111F21503040403090E05907A0
:1005D00090E0690790E4790760F32B8F3C8FDB0193
:1005E000CA018F779070A070B07080349105A1051A
:1005F000B10561F447FD0AC0E114F10401051105DC
:1006000029F0405C5F4F6F4F7F4F40781A8EFE1786
:1006100011F081E08A8F4D8F5E8F6F8F78A383E01A
:10062000898FCE0149960E945605A096E2E10C946E
:100630007C17A8E1B0E0EFE1F3E00C946817698360
:100640007A838B839C832D833E834F835887B9E0C5
:10065000EB2EF12CEC0EFD1ECE010196B7010E948F
:100660002B068E010F5E1F4FCE010596B8010E942A
:100670002B062985223008F47EC03989323010F4E7
:10068000B8017CC08A859A8989278A87243011F02D
:10069000223031F4231709F06EC06FE770E06EC0AE
:1006A000343039F41D861E861F86188A1C861B86E8
:1006B00004C0323021F484E08987B7015FC02B8504
:1006C0003C858B899C89281B390B3C872B87ED84C3
:1006D000FE840F851889AD88BE88CF88D88CEA142F
:1006E000FB040C051D0540F4EE0CFF1C001F111F40
:1006F000215030403C872B8720E030E040E050E044
:1007000080E090E0A0E0B0E460E070E0EA14FB0478
:100710000C051D0540F0282B392B4A2B5B2BEA18C2
:10072000FB080C091D09B695A79597958795EE0CC2
:10073000FF1C001F111F6F5F7F4F6F31710531F775
:10074000DA01C9018F779070A070B0708034910584
:10075000A105B10561F427FD0AC0E114F10401050A
:10076000110529F0205C3F4F4F4F5F4F20782D87B8
:100770003E874F87588BBE01675F7F4FCB010E943A
:1007800056056896EAE00C948417A8E1B0E0EBEC1B
:10079000F3E00C946C1769837A838B839C832D839D
:1007A0003E834F83588789E0E82EF12CEC0EFD1E26
:1007B000CE010196B7010E942B068E010F5E1F4FDE
:1007C000CE010596B8010E942B068985823040F043
:1007D0008989823028F0C701B8010E94A30601C0B0
:1007E0008FEF6896E6E00C948817A8E1B0E0EBEF95
:1007F000F3E00C946C1769837A838B839C832D833D
:100800003E834F83588789E0E82EF12CEC0EFD1EC5
:10081000CE010196B7010E942B068E010F5E1F4F7D
:10082000CE010596B8010E942B068985823040F0E2
:100830008989823028F0C701B8010E94A30601C04F
:100840008FEF6896E6E00C948817A8E1B0E0EBE241
:10085000F4E00C946C1769837A838B839C832D83DB
:100860003E834F83588789E0E82EF12CEC0EFD1E65
:10087000CE010196B7010E942B068E010F5E1F4F1D
:10088000CE010596B8010E942B068985823040F082
:100890008989823028F0C701B8010E94A30601C0EF
:1008A00081E06896E6E00C948817A8E0B0E0EBE5FC
:1008B000F4E00C9469179B01AC0183E08983DA01B1
:1008C000C9018827B7FD83959927AA27BB27B82E8A
:1008D000211531054105510519F482E089833AC09B
:1008E0008823A9F0203080E0380780E0480780E8BE
:1008F000580729F460E070E080E09FEC30C0EE24FF
:10090000FF248701E21AF30A040B150B02C07901D8
:100910008A018EE1C82ED12CDC82CB82ED82FE8250
:100920000F831887C801B7010E94070501971816A1
:10093000190684F4082E04C0EE0CFF1C001F111FC2
:100940000A94D2F7ED82FE820F831887C81AD90A5B
:10095000DC82CB82BA82CE0101960E94560528968F
:10096000E9E00C948517ACE0B0E0E9EBF4E00C941E
:10097000701769837A838B839C83CE010196BE01B5
:100980006B5F7F4F0E942B068D81823061F1823038
:1009900050F1843021F48E81882351F12EC02F81B3
:1009A000388537FD20C06E812F3131051CF066235C
:1009B000F9F023C08EE190E0821B930B29853A85E4
:1009C0004B855C8504C056954795379527958A9544
:1009D000D2F76623B1F050954095309521953F4F61
:1009E0004F4F5F4F0EC020E030E040E050E009C0C4
:1009F0002FEF3FEF4FEF5FE704C020E030E040E033
:100A000050E8B901CA012C96E2E00C948C17EF92E1
:100A1000FF920F931F937B018C0180E0E81680E02A
:100A2000F80681E0080780E0180788F48FEFE816E1
:100A3000F1040105110531F028F088E090E0A0E014
:100A4000B0E017C080E090E0A0E0B0E012C080E02D
:100A5000E81680E0F80680E0080781E0180728F033
:100A600088E190E0A0E0B0E004C080E190E0A0E088
:100A7000B0E020E230E040E050E0281B390B4A0BA8
:100A80005B0B04C016950795F794E7948A95D2F707
:100A9000F701E957FF4F8081281B310941095109AE
:100AA000C9011F910F91FF90EF900895DF92EF928F
:100AB000FF920F931F93FC01E480F580068117815C
:100AC000D1808081823048F480E090E0A0E1B0E005
:100AD000E82AF92A0A2B1B2BA5C0843009F49FC0F1
:100AE000823021F4EE24FF24870105C0E114F104D3
:100AF0000105110519F4E0E0F0E096C06281738110
:100B00009FEF623879070CF05BC022E83FEF261BAD
:100B1000370B2A3131052CF020E030E040E050E086
:100B20002AC0B801A701022E04C076956795579593
:100B300047950A94D2F781E090E0A0E0B0E004C0CD
:100B4000880F991FAA1FBB1F2A95D2F70197A109E9
:100B5000B1098E219F21A023B1230097A105B105E2
:100B600021F081E090E0A0E0B0E09A01AB01282BF9
:100B7000392B4A2B5B2BDA01C9018F779070A0705B
:100B8000B07080349105A105B10539F427FF09C083
:100B9000205C3F4F4F4F5F4F04C0215C3F4F4F4F92
:100BA0005F4FE0E0F0E02030A0E03A07A0E04A0725
:100BB000A0E45A0710F0E1E0F0E079018A0127C0D3
:100BC0006038710564F5FB01E158FF4FD801C7019A
:100BD0008F779070A070B07080349105A105B10539
:100BE00039F4E7FE0DC080E490E0A0E0B0E004C07E
:100BF0008FE390E0A0E0B0E0E80EF91E0A1F1B1F93
:100C000017FF05C016950795F794E794319687E08E
:100C100016950795F794E7948A95D1F705C0EE24C9
:100C2000FF248701EFEFF0E06E2F67956627679549
:100C3000902F9F77D794DD24D7948E2F8695492FB8
:100C4000462B582F5D29B701CA011F910F91FF90C4
:100C5000EF90DF900895FC01DB01408151812281FA
:100C6000622F6F7770E0221F2227221F9381892F26
:100C7000880F822B282F30E0991F9927991F1196F2
:100C80009C93119721153105A9F541155105610571
:100C9000710511F482E037C082E89FEF13969C93B0
:100CA0008E9312979A01AB0167E0220F331F441F06
:100CB000551F6A95D1F783E08C930DC0220F331F27
:100CC000441F551F12968D919C911397019713966F
:100CD0009C938E931297203080E0380780E048077D
:100CE00080E4580758F314962D933D934D935C93ED
:100CF000179708952F3F310579F441155105610586
:100D0000710519F484E08C93089564FF03C081E0B9
:100D10008C9312C01C9210C02F57304013963C93F6
:100D20002E93129783E08C9387E0440F551F661F24
:100D3000771F8A95D1F7706414964D935D936D93E8
:100D40007C93179708951F93DC01FB019C919230CF
:100D500008F447C08081823008F443C0943051F4D5
:100D600011961C91843099F58181682F70E0611B88
:100D700071093FC0843021F0923031F48230B9F1F2
:100D80008181882389F12DC011961C9111978230A1
:100D9000F1F081811817D9F412962D913C91139797
:100DA000828193818217930794F028173907BCF04A
:100DB00014968D919D910D90BC91A02D248135812B
:100DC00046815781281739074A075B0718F4112312
:100DD00041F00AC082179307A407B50740F4112316
:100DE00019F061E070E005C06FEF7FEF02C060E0D6
:100DF00070E0CB011F910895DF93CF93CDB7DEB79D
:100E0000EAE3F0E08CE08083E7E3F0E087E18083D1
:100E1000E4E3F0E01082E1E3F0E08FEF8083EBE3C6
:100E2000F0E01082E8E3F0E01082E5E3F0E08CE32C
:100E30008083E2E3F0E01082CF91DF910895DF93A9
:100E4000CF9300D000D000D0CDB7DEB78A836B83BC
:100E50004C8319828A81282F30E03E832D838D8137
:100E60009E818130910509F449C02D813E81223057
:100E700031052CF48D819E81009771F0D4C02D81B5
:100E80003E812230310509F46BC08D819E81833013
:100E9000910509F497C0C7C08C818130A1F4ABE300
:100EA000B0E0EBE3F0E08081482F8B81282F30E029
:100EB00081E090E0022E02C0880F991F0A94E2F7A9
:100EC000842B8C93B0C08C818823A9F4ABE3B0E071
:100ED000EBE3F0E08081482F8B81282F30E081E028
:100EE00090E0022E02C0880F991F0A94E2F78095C5
:100EF00084238C9398C081E0898395C08C81813054
:100F0000A1F4A8E3B0E0E8E3F0E08081482F8B8112
:100F1000282F30E081E090E0022E02C0880F991F58
:100F20000A94E2F7842B8C937EC08C818823A9F4E9
:100F3000A8E3B0E0E8E3F0E08081482F8B81282F20
:100F400030E081E090E0022E02C0880F991F0A94E1
:100F5000E2F7809584238C9366C081E0898363C027
:100F60008C818130A1F4A5E3B0E0E5E3F0E080817D
:100F7000482F8B81282F30E081E090E0022E02C0C4
:100F8000880F991F0A94E2F7842B8C934CC08C81B4
:100F90008823A9F4A5E3B0E0E5E3F0E08081482FE1
:100FA0008B81282F30E081E090E0022E02C0880F74
:100FB000991F0A94E2F7809584238C9334C081E0D2
:100FC000898331C08C818130A1F4A2E3B0E0E2E3F7
:100FD000F0E08081482F8B81282F30E081E090E085
:100FE000022E02C0880F991F0A94E2F7842B8C937B
:100FF0001AC08C818823A9F4A2E3B0E0E2E3F0E018
:101000008081482F8B81282F30E081E090E0022EF4
:1010100002C0880F991F0A94E2F7809584238C936D
:1010200002C081E08983898126960FB6F894DEBFDD
:101030000FBECDBFCF91DF910895DF93CF9300D046
:1010400000D00F92CDB7DEB78A836B8319828A8175
:10105000843098F58A81282F30E03D832C838C8161
:101060009D8181309105D1F02C813D812230310567
:101070002CF48C819D81009761F021C02C813D81F1
:101080002230310581F08C819D818330910581F082
:1010900016C0EBE3F0E08B81808311C0E8E3F0E061
:1010A0008B8180830CC0E5E3F0E08B81808307C0F7
:1010B000E2E3F0E08B81808302C081E08983898153
:1010C0000F900F900F900F900F90CF91DF91089598
:1010D000DF93CF93CDB7DEB727970FB6F894DEBF77
:1010E0000FBECDBF89836A835C834B838981282FA0
:1010F00030E03F832E834E815F814130510559F1AD
:101100008E819F818230910534F42E813F8121159B
:10111000310569F05CC04E815F814230510579F143
:101120008E819F818330910509F43DC050C0E9E371
:10113000F0E08081282F30E08A81882F90E0A9019B
:1011400002C0559547958A95E2F7CA018170EB81F7
:10115000FC8180833FC0E6E3F0E08081282F30E00F
:101160008A81882F90E0A90102C0559547958A95FC
:10117000E2F7CA018170EB81FC8180832BC0E3E33D
:10118000F0E08081282F30E08A81882F90E0A9014B
:1011900002C0559547958A95E2F7CA018170EB81A7
:1011A000FC81808317C0E0E3F0E08081282F30E0ED
:1011B0008A81882F90E0A90102C0559547958A95AC
:1011C000E2F7CA018170EB81FC81808303C052E0A9
:1011D0005D8302C081E08D838D8127960FB6F894E0
:1011E000DEBF0FBECDBFCF91DF910895DF93CF93C8
:1011F0000F92CDB7DEB78983EBE3F0E0898180837E
:101200000F90CF91DF9108950F931F93DF93CF93AA
:10121000CDB7DEB7CC58D0400FB6F894DEBF0FBEC6
:10122000CDBFFE01E757FF4F80E090E0ACE0B2E4B5
:1012300080839183A283B3838E010B571F4FFE01DE
:10124000E757FF4F608171818281938120E030E018
:101250004AE755E40E941F02DC01CB01F8018083BC
:101260009183A283B383FE01EB57FF4F60817181AD
:101270008281938120E030E040E85FE30E94250412
:10128000882344F4FE01ED57FF4F81E090E0918305
:10129000808364C0FE01EB57FF4F608171818281C2
:1012A000938120E03FEF4FE757E40E94C5031816F3
:1012B0000CF043C0FE01E757FF4F608171818281CE
:1012C000938120E030E040E251E40E941F02DC0103
:1012D000CB018E010D571F4FBC01CD010E9449006B
:1012E000DC01CB01F801918380831FC0FE01EF5721
:1012F000FF4F80E991E091838083FE01EF57FF4F1C
:10130000808191810197F1F7FE01EF57FF4F9183A3
:101310008083DE01AD57BF4FFE01ED57FF4F808147
:101320009181019711969C938E93FE01ED57FF4F8B
:10133000808191810097D1F627C08E010D571F4FF4
:10134000FE01EB57FF4F60817181828193810E9482
:101350004900DC01CB01F80191838083DE01A158B3
:10136000BF4FFE01ED57FF4F808191818D939C937C
:10137000FE01E158FF4F808191810197F1F7FE0155
:10138000E158FF4F9183808380E30E94F40FFE01B8
:10139000E558FF4F80E090E0A0EAB0E480839183BD
:1013A000A283B3838E0109581F4FFE01E558FF4FFA
:1013B000608171818281938120E030E04AE755E4C9
:1013C0000E941F02DC01CB01F80180839183A2837C
:1013D000B383FE01E958FF4F60817181828193815F
:1013E00020E030E040E85FE30E942504882344F4D5
:1013F000FE01EB58FF4F81E090E09183808364C051
:10140000FE01E958FF4F608171818281938120E064
:101410003FEF4FE757E40E94C50318160CF043C096
:10142000FE01E558FF4F608171818281938120E048
:1014300030E040E251E40E941F02DC01CB018E014A
:101440000B581F4FBC01CD010E944900DC01CB01AC
:10145000F801918380831FC0FE01ED58FF4F80E9A2
:1014600091E091838083FE01ED58FF4F808191814F
:101470000197F1F7FE01ED58FF4F91838083DE0164
:10148000AB58BF4FFE01EB58FF4F80819181019710
:1014900011969C938E93FE01EB58FF4F80819181B2
:1014A0000097D1F627C08E010B581F4FFE01E95857
:1014B000FF4F60817181828193810E944900DC012C
:1014C000CB01F80191838083DE01AF58BF4FFE014D
:1014D000EB58FF4F808191818D939C93FE01EF58D3
:1014E000FF4F808191810197F1F7FE01EF58FF4F87
:1014F0009183808380E30E94F40FFE01E359FF4F44
:1015000080E090E0A0E8BFE380839183A283B3836F
:101510008E0107591F4FFE01E359FF4F6081718112
:101520008281938120E030E04AE755E40E941F0267
:10153000DC01CB01F80180839183A283B383FE0198
:10154000E759FF4F608171818281938120E030E013
:1015500040E85FE30E942504882344F4FE01E95932
:10156000FF4F81E090E09183808364C0FE01E759E2
:10157000FF4F608171818281938120E03FEF4FE7CF
:1015800057E40E94C50318160CF043C0FE01E3594E
:10159000FF4F608171818281938120E030E040E2E1
:1015A00051E40E941F02DC01CB018E0109591F4F3B
:1015B000BC01CD010E944900DC01CB01F8019183FF
:1015C00080831FC0FE01EB59FF4F80E991E09183BA
:1015D0008083FE01EB59FF4F808191810197F1F7E4
:1015E000FE01EB59FF4F91838083DE01A959BF4F64
:1015F000FE01E959FF4F80819181019711969C93DB
:101600008E93FE01E959FF4F808191810097D1F6B9
:1016100027C08E0109591F4FFE01E759FF4F608116
:101620007181828193810E944900DC01CB01F80124
:1016300091838083DE01AD59BF4FFE01E959FF4F11
:10164000808191818D939C93FE01ED59FF4F8081A4
:1016500091810197F1F7FE01ED59FF4F918380834E
:1016600080E30E94F40FFE01E15AFF4F80E090E01A
:10167000A0E8BFE380839183A283B3838E01055AE0
:101680001F4FFE01E15AFF4F60817181828193817A
:1016900020E030E04AE755E40E941F02DC01CB0164
:1016A000F80180839183A283B383FE01E55AFF4F43
:1016B000608171818281938120E030E040E85FE3C6
:1016C0000E942504882344F4FE01E75AFF4F81E07D
:1016D00090E09183808364C0FE01E55AFF4F6081F2
:1016E00071818281938120E03FEF4FE757E40E94B0
:1016F000C50318160CF043C0FE01E15AFF4F60818C
:1017000071818281938120E030E040E251E40E94C7
:101710001F02DC01CB018E01075A1F4FBC01CD0116
:101720000E944900DC01CB01F801918380831FC036
:10173000FE01E95AFF4F80E991E091838083FE0129
:10174000E95AFF4F808191810197F1F7FE01E95A33
:10175000FF4F91838083DE01A75ABF4FFE01E75AF6
:10176000FF4F80819181019711969C938E93FE018A
:10177000E75AFF4F808191810097D1F627C08E01F3
:10178000075A1F4FFE01E55AFF4F60817181828128
:1017900093810E944900DC01CB01F8019183808391
:1017A000DE01AB5ABF4FFE01E75AFF4F80819181A6
:1017B0008D939C93FE01EB5AFF4F8081918101979D
:1017C000F1F7FE01EB5AFF4F9183808380E20E9484
:1017D000F40FFE01EF5AFF4F80E090E0A0E8BFE376
:1017E00080839183A283B3838E01035B1F4FFE012D
:1017F000EF5AFF4F608171818281938120E030E058
:101800004AE755E40E941F02DC01CB01F801808306
:101810009183A283B383FE01E35BFF4F60817181FB
:101820008281938120E030E040E85FE30E9425045C
:10183000882344F4FE01E55BFF4F81E090E0918353
:10184000808364C0FE01E35BFF4F60817181828110
:10185000938120E03FEF4FE757E40E94C50318163D
:101860000CF043C0FE01EF5AFF4F6081718182810D
:10187000938120E030E040E251E40E941F02DC014D
:10188000CB018E01055B1F4FBC01CD010E944900B9
:10189000DC01CB01F801918380831FC0FE01E75B6F
:1018A000FF4F80E991E091838083FE01E75BFF4F6A
:1018B000808191810197F1F7FE01E75BFF4F9183F2
:1018C0008083DE01A55BBF4FFE01E55BFF4F80819A
:1018D0009181019711969C938E93FE01E55BFF4FDA
:1018E000808191810097D1F627C08E01055B1F4F43
:1018F000FE01E35BFF4F60817181828193810E94D1
:101900004900DC01CB01F80191838083DE01A95BF2
:10191000BF4FFE01E55BFF4F808191818D939C93CA
:10192000FE01E95BFF4F808191810197F1F7FE0194
:10193000E95BFF4F9183808388E20E94040FFE01E0
:10194000ED5BFF4F80E090E0A0E8BFE380839183F0
:10195000A283B3838E01015C1F4FFE01ED5BFF4F3D
:10196000608171818281938120E030E04AE755E413
:101970000E941F02DC01CB01F80180839183A283C6
:10198000B383FE01FF96608171818281938120E0A3
:1019900030E040E85FE30E94250488232CF481E0D6
:1019A00090E09EAF8DAF46C0FE01FF9660817181D1
:1019B0008281938120E03FEF4FE757E40E94C50307
:1019C000181664F5FE01ED5BFF4F60817181828125
:1019D000938120E030E040E251E40E941F02DC01EC
:1019E000CB01BC01CD010E944900DC01CB019EAFBF
:1019F0008DAF0FC080E991E09CAF8BAF8BAD9CADFC
:101A00000197F1F79CAF8BAF8DAD9EAD01979EAF67
:101A10008DAF8DAD9EAD009769F716C0FE01FF96A4
:101A200060817181828193810E944900DC01CB0138
:101A30009EAF8DAF8DAD9EAD9AAF89AF89AD9AAD9A
:101A40000197F1F79AAF89AF88E00E94040F80E018
:101A500090E0A0E8BFE38DAB9EABAFABB8AF6DA994
:101A60007EA98FA998AD20E030E04AE755E40E94B6
:101A70001F02DC01CB0189AB9AABABABBCAB69A954
:101A80007AA98BA99CA920E030E040E85FE30E949E
:101A9000250488232CF481E090E098AB8FA73FC009
:101AA00069A97AA98BA99CA920E03FEF4FE757E4E9
:101AB0000E94C50318164CF56DA97EA98FA998AD93
:101AC00020E030E040E251E40E941F02DC01CB0143
:101AD000BC01CD010E944900DC01CB0198AB8FA76E
:101AE0000FC080E991E09EA78DA78DA59EA50197C7
:101AF000F1F79EA78DA78FA598A9019798AB8FA7FF
:101B00008FA598A9009769F714C069A97AA98BA92C
:101B10009CA90E944900DC01CB0198AB8FA78FA53F
:101B200098A99CA78BA78BA59CA50197F1F79CA7CB
:101B30008BA781E00E94040F80E090E0A0EAB0E46F
:101B40008FA398A7A9A7BAA76FA178A589A59AA5D9
:101B500020E030E04AE755E40E941F02DC01CB019F
:101B60008BA39CA3ADA3BEA36BA17CA18DA19EA1C1
:101B700020E030E040E85FE30E94250488232CF455
:101B800081E090E09AA389A33FC06BA17CA18DA1C5
:101B90009EA120E03FEF4FE757E40E94C5031816CF
:101BA0004CF56FA178A589A59AA520E030E040E228
:101BB00051E40E941F02DC01CB01BC01CD010E9457
:101BC0004900DC01CB019AA389A30FC080E991E011
:101BD00098A38F8F8F8D98A10197F1F798A38F8F7E
:101BE00089A19AA101979AA389A389A19AA1009793
:101BF00069F714C06BA17CA18DA19EA10E94490030
:101C0000DC01CB019AA389A389A19AA19E8F8D8F14
:101C10008D8D9E8D0197F1F79E8F8D8F8CE00E94A8
:101C2000040F80E090E0A0E8BFE3898F9A8FAB8F2C
:101C3000BC8F698D7A8D8B8D9C8D20E030E04AE7DA
:101C400055E40E941F02DC01CB018D8B9E8BAF8B74
:101C5000B88F6D897E898F89988D20E030E040E8CB
:101C60005FE30E94250488232CF481E090E09C8BA4
:101C70008B8B3FC06D897E898F89988D20E03FEFE7
:101C80004FE757E40E94C50318164CF5698D7A8D0D
:101C90008B8D9C8D20E030E040E251E40E941F02D9
:101CA000DC01CB01BC01CD010E944900DC01CB016C
:101CB0009C8B8B8B0FC080E991E09A8B898B8989F3
:101CC0009A890197F1F79A8B898B8B899C89019767
:101CD0009C8B8B8B8B899C89009769F714C06D89CD
:101CE0007E898F89988D0E944900DC01CB019C8BF5
:101CF0008B8B8B899C89988B8F878F85988901978F
:101D0000F1F7988B8F8786E00E94040F80E090E0C7
:101D1000A0E8BFE38B879C87AD87BE876B857C85FA
:101D20008D859E8520E030E04AE755E40E941F0241
:101D3000DC01CB018F839887A987BA876F8178856B
:101D400089859A8520E030E040E85FE30E94250421
:101D500088232CF481E090E09E838D833FC06F81C7
:101D6000788589859A8520E03FEF4FE757E40E9408
:101D7000C50318164CF56B857C858D859E8520E006
:101D800030E040E251E40E941F02DC01CB01BC01C3
:101D9000CD010E944900DC01CB019E838D830FC0E1
:101DA00080E991E09C838B838B819C810197F1F783
:101DB0009C838B838D819E8101979E838D838D81F2
:101DC0009E81009769F714C06F81788589859A850F
:101DD0000E944900DC01CB019E838D838D819E8111
:101DE0009A83898389819A810197F1F79A838983FC
:101DF000C457DF4F0FB6F894DEBF0FBECDBFCF91F3
:101E0000DF911F910F910895DF93CF93CDB7DEB788
:101E10002F970FB6F894DEBF0FBECDBF8F8780E03F
:101E200063E040E00E941F0780E062E041E00E9422
:101E30001F078F8582958F70982F917081E060E0E9
:101E4000492F0E941F078F85829586958770982F4E
:101E5000917081E061E0492F0E941F078F85829574
:101E6000869586958370982F917081E062E0492F66
:101E70000E941F078F85982F991F9927991F81E02E
:101E800064E0492F0E941F0780E062E040E00E946A
:101E90001F0780E062E041E00E941F078F85982FB6
:101EA000917081E060E0492F0E941F078F85869521
:101EB000982F917081E061E0492F0E941F078F8564
:101EC00086958695982F917081E062E0492F0E9457
:101ED0001F078F85869586958695982F917081E04E
:101EE00064E0492F0E941F0780E062E040E00E940A
:101EF0001F0780E090E0A0EAB0E48B879C87AD8765
:101F0000BE876B857C858D859E8520E030E04AE725
:101F100055E40E941F02DC01CB018F839887A987BB
:101F2000BA876F81788589859A8520E030E040E81E
:101F30005FE30E94250488232CF481E090E09E83D7
:101F40008D833FC06F81788589859A8520E03FEF3A
:101F50004FE757E40E94C50318164CF56B857C8546
:101F60008D859E8520E030E040E251E40E941F0212
:101F7000DC01CB01BC01CD010E944900DC01CB0199
:101F80009E838D830FC080E991E09C838B838B813E
:101F90009C810197F1F79C838B838D819E810197B2
:101FA0009E838D838D819E81009769F714C06F8118
:101FB000788589859A850E944900DC01CB019E8342
:101FC0008D838D819E819A83898389819A810197EE
:101FD000F1F79A8389832F960FB6F894DEBF0FBE70
:101FE000CDBFCF91DF910895DF93CF93CDB7DEB70B
:101FF0002F970FB6F894DEBF0FBECDBF8F8780E05E
:1020000063E040E00E941F0780E062E041E00E9440
:102010001F078F8582958F70982F917081E060E007
:10202000492F0E941F078F85829586958770982F6C
:10203000917081E061E0492F0E941F078F85829592
:10204000869586958370982F917081E062E0492F84
:102050000E941F078F85982F991F9927991F81E04C
:1020600064E0492F0E941F0780E062E040E00E9488
:102070001F0780E090E0A0EAB0E48B879C87AD87E3
:10208000BE876B857C858D859E8520E030E04AE7A4
:1020900055E40E941F02DC01CB018F839887A9873A
:1020A000BA876F81788589859A8520E030E040E89D
:1020B0005FE30E94250488232CF481E090E09E8356
:1020C0008D833FC06F81788589859A8520E03FEFB9
:1020D0004FE757E40E94C50318164CF56B857C85C5
:1020E0008D859E8520E030E040E251E40E941F0291
:1020F000DC01CB01BC01CD010E944900DC01CB0118
:102100009E838D830FC080E991E09C838B838B81BC
:102110009C810197F1F79C838B838D819E81019730
:102120009E838D838D819E81009769F714C06F8196
:10213000788589859A850E944900DC01CB019E83C0
:102140008D838D819E819A83898389819A8101976C
:10215000F1F79A8389832F960FB6F894DEBF0FBEEE
:10216000CDBFCF91DF910895DF93CF93CDB7DEB789
:102170002F970FB6F894DEBF0FBECDBF8F8780E0DC
:1021800063E041E00E941F0780E062E041E00E94BE
:102190001F078F8582958F70982F917081E060E086
:1021A000492F0E941F078F85829586958770982FEB
:1021B000917081E061E0492F0E941F078F85829511
:1021C000869586958370982F917081E062E0492F03
:1021D0000E941F078F85982F991F9927991F81E0CB
:1021E00064E0492F0E941F0780E062E040E00E9407
:1021F0001F0780E062E041E00E941F078F85982F53
:10220000917081E060E0492F0E941F078F858695BD
:10221000982F917081E061E0492F0E941F078F8500
:1022200086958695982F917081E062E0492F0E94F3
:102230001F078F85869586958695982F917081E0EA
:1022400064E0492F0E941F0780E062E040E00E94A6
:102250001F0780E090E0A0EAB0E48B879C87AD8701
:10226000BE876B857C858D859E8520E030E04AE7C2
:1022700055E40E941F02DC01CB018F839887A98758
:10228000BA876F81788589859A8520E030E040E8BB
:102290005FE30E94250488232CF481E090E09E8374
:1022A0008D833FC06F81788589859A8520E03FEFD7
:1022B0004FE757E40E94C50318164CF56B857C85E3
:1022C0008D859E8520E030E040E251E40E941F02AF
:1022D000DC01CB01BC01CD010E944900DC01CB0136
:1022E0009E838D830FC080E991E09C838B838B81DB
:1022F0009C810197F1F79C838B838D819E8101974F
:102300009E838D838D819E81009769F714C06F81B4
:10231000788589859A850E944900DC01CB019E83DE
:102320008D838D819E819A83898389819A8101978A
:10233000F1F79A8389832F960FB6F894DEBF0FBE0C
:10234000CDBFCF91DF910895DF93CF9300D00F924F
:10235000CDB7DEB79B838A8319820EC08981282F6F
:1023600030E08A819B81FC01E20FF31F80810E9493
:10237000B41089818F5F89838981282F30E08A8119
:102380009B81FC01E20FF31F8081882339F70F90B6
:102390000F900F90CF91DF9108950F931F93DF93CC
:1023A000CF93CDB7DEB72E970FB6F894DEBF0FBE32
:1023B000CDBF69877A878B879C875E874D871D8213
:1023C0001E821F82188683E190E0A0E0B0E089833E
:1023D0009A83AB83BC8329813A818D859E85FC01DC
:1023E000E20FF31F108289819A81AB81BC81019732
:1023F000A109B10989839A83AB83BC8389859A85B6
:10240000AB85BC85BB230CF04DC081E090E0A0E023
:10241000B0E08D839E83AF83B88789859A85AB852D
:10242000BC85B095A095909581959F4FAF4FBF4FBC
:1024300089879A87AB87BC8735C029813A818D858A
:102440009E858C01020F131F89859A85AB85BC85FB
:102450002AE030E040E050E0BC01CD010E942317AB
:10246000DC01CB01805DF801808389819A81AB8199
:10247000BC810197A109B10989839A83AB83BC838D
:1024800089859A85AB85BC852AE030E040E050E044
:10249000BC01CD010E942317DA01C90189879A87FF
:1024A000AB87BC8789859A85AB85BC850097A105DC
:1024B000B10519F68D819E81AF81B8850097A10580
:1024C000B105A1F029813A818D859E85FC01E20F3D
:1024D000F31F8DE2808389819A81AB81BC81019752
:1024E000A109B10989839A83AB83BC8389819A81CD
:1024F000AB81BC810196A11DB11D89839A83AB83F9
:10250000BC8329813A818D859E85820F931F2E96EB
:102510000FB6F894DEBF0FBECDBFCF91DF911F91F4
:102520000F910895DF93CF93CDB7DEB76A970FB6BB
:10253000F894DEBF0FBECDBF6F8B788F898F9A8FD7
:102540008F89988DA98DBA8D0097A105B10599F055
:102550008F89988DA98DBA8D9E012D5F3F4FBC014B
:10256000CD01A9010E94CD119A83898389819A8125
:102570000E94A41103C080E30E94B4106A960FB6B3
:10258000F894DEBF0FBECDBFCF91DF910895DF93EA
:10259000CF93CDB7DEB7A6970FB6F894DEBF0FBEC8
:1025A000CDBF6BA37CA38DA39EA36BA17CA18DA1AA
:1025B0009EA120E030E048EC52E40E941F02DC01C2
:1025C000CB01BC01CD010E94B304DC01CB018B87A0
:1025D0009C87AD87BE878B859C85AD85BE859E011A
:1025E000215F3F4FBC01CD01A9010E94CD119A8707
:1025F00089871D821E821F82188619821A821B8279
:102600001C820BC08D819E81AF81B8850196A11D72
:10261000B11D8D839E83AF83B8872D813E818985CF
:102620009A85FC01E20FF31F8081882359F78D8181
:102630009E81AF81B8850297A109B1098D839E83E0
:10264000AF83B8878D819E81AF81B8850097A10542
:10265000B10549F580E30E94B41025C029813A8173
:102660004B815C818D819E81AF81B88528173907A8
:102670004A075B0719F48EE20E94B41029813A815F
:1026800089859A85FC01E20FF31F80810E94B410B6
:1026900089819A81AB81BC810196A11DB11D89837D
:1026A0009A83AB83BC8329813A8189859A85FC0111
:1026B000E20FF31F8081882389F6A6960FB6F8945F
:1026C000DEBF0FBECDBFCF91DF910895DF93CF93D3
:1026D00000D00F92CDB7DEB78A836B8380E8898301
:1026E0008A81882321F48B818058898314C08A8150
:1026F000813021F48B81805489830DC08A8182309E
:1027000021F48B818C56898306C08A81833019F429
:102710008B818C52898389818068898389810E9419
:10272000040F0F900F900F90CF91DF910895DF93DA
:10273000CF93CDB7DEB727970FB6F894DEBF0FBEA5
:10274000CDBF9C838B836D834E832F838E816F815E
:102750000E9466138D810E94B4101A8219828D81A5
:10276000883030F58D81882F90E0880F991F880F71
:10277000991F880F991F8A838A8180648A838A813E
:102780008F778A838A810E94040F19820EC0898103
:10279000282F30E08B819C81FC01E20FF31F8081A8
:1027A0000E94B41089818F5F89838981883078F392
:1027B00082E00E94040F27960FB6F894DEBF0FBE8A
:1027C000CDBFCF91DF910895DF93CF9300D000D09C
:1027D0000F92CDB7DEB78FEF8B831C821A825EC05B
:1027E0008A81882F90E0FC01E557FE4F908183E0BD
:1027F000692F40E00E941F0719823DC08981882F00
:1028000090E0FC01E957FE4F90819E012C5F3F4F05
:1028100082E0692FA9010E9468088C81882341F514
:102820008981482F50E08A81282F30E0CA01880F23
:10283000991F880F991F820F931FFC01E157FE4FCC
:1028400080818B830FC08981882F90E0FC01E9573C
:10285000FE4F90819E012C5F3F4F82E0692FA901BE
:102860000E9468088C81882371F38B818D831CC042
:1028700089818F5F89838981843008F4BFCF8A8101
:10288000882F90E0FC01E557FE4F908183E0692F8F
:1028900041E00E941F078A818F5F8A838A8184308A
:1028A00008F49ECF8B818D838D810F900F900F90B8
:1028B0000F900F90CF91DF910895EF92FF920F93B9
:1028C0001F93DF93CF9300D0CDB7DEB70E94FC06F5
:1028D0000E94040980E690E00E94A41181E060E07B
:1028E0000E9466130E94E4138093A3018091A301C8
:1028F0008F3FC1F3809109028D3321F080910A024C
:10290000813079F410920A0281E00E94040F80E67F
:1029100090E00E94A41181E060E00E946613109292
:1029200009028091A3018A3008F059C080919F016B
:102930009091A001A091A101B091A201BC01CD0193
:1029400020E030E040E050E00E942504882364F459
:1029500080E090E0A0E0B0E080939F019093A00120
:10296000A093A101B093A2018091A301882F90E0D0
:10297000A0E0B0E0BC01CD010E94921280919F01C5
:102980009091A001A091A101B091A201BC01CD0143
:1029900020E030E040E251E40E941F02DC01CB0164
:1029A0007C018D018091A301882F90E0AA2797FDDB
:1029B000A095BA2FBC01CD010E9455049B01AC012A
:1029C000C801B7010E94F201DC01CB0180939F0195
:1029D0009093A001A093A101B093A20183CF809115
:1029E0009F019091A001A091A101B091A201BC0111
:1029F000CD0120E030E040E050E00E94F503882364
:102A00002CF48091A301833409F06CCF8091A30151
:102A1000282F30E03A83298389819A818F3291056A
:102A200009F129813A812033310584F489819A8121
:102A30008B329105A9F129813A812D32310531F18D
:102A400089819A818A329105B9F04CCF29813A81E6
:102A50002D33310579F189819A818334910509F407
:102A600058C040CF0E94A5158091A3010E94B410C8
:102A70008FE28093080236CF0E94A5158091A301B2
:102A80000E94B4108AE2809308022CCF8DE28093DA
:102A900009028091A3010E94B4100E94A51522CFC3
:102AA0008BE2809309028091A3010E94B4100E94DE
:102AB000A51518CF8DE3809309020E94A5150E94E9
:102AC000771680910A02813009F40CCF83E060E030
:102AD0000E94661389E690E00E94A4118091A301F0
:102AE0000E94B41080910B02882F90E00197880F0C
:102AF000991F880F991FFC01EC55FE4F8081918131
:102B0000A281B381BC01CD010E94C71210920B02B9
:102B1000E9CE81E00E94040F80E690E00E94A411BB
:102B200081E060E00E94661310920B0280E090E06A
:102B3000A0E8BFEB80939F019093A001A093A10117
:102B4000B093A20110920802CDCEDF93CF93CDB700
:102B5000DEB7809108028F3209F059C01092080246
:102B600080919F019091A001A091A101B091A2013B
:102B7000BC01CD0120E030E040E050E00E94C50300
:102B8000181664F580910B02882F90E00197880F4A
:102B9000991F880F991FFC01EC55FE4F8081918190
:102BA000A281B38120919F013091A0014091A101A8
:102BB0005091A201BC01CD010E941903DC01CB019F
:102BC00080939F019093A001A093A101B093A201D3
:102BD00080910B02815080930B024AC081E00E94D9
:102BE000040F8DE690E00E94A41180E090E0A0E840
:102BF000BFEB80939F019093A001A093A101B0939C
:102C0000A20110920B0281E080930A026DC08091B4
:102C100008028A3269F51092080280910B02882F0F
:102C200090E00197880F991F880F991FFC01EC55C0
:102C3000FE4F80819181A281B38120919F013091CB
:102C4000A0014091A1015091A201BC01CD010E94BF
:102C50001F02DC01CB0180939F019093A001A09300
:102C6000A101B093A20180910B02815080930B02CD
:102C7000809109028B3221F0809109028D3261F43A
:102C800080910B02882F90E02091A301FC01EC5071
:102C9000FE4F20831092090280910B02882F90E052
:102CA00020919F013091A0014091A1015091A2017A
:102CB000880F991F880F991FFC01EC55FE4F208348
:102CC00031834283538380910B028F5F80930B0289
:102CD00080E090E0A0E8BFEB80939F019093A0017B
:102CE000A093A101B093A201CF91DF910895CF925B
:102CF000DF92EF92FF920F931F93DF93CF930F9288
:102D0000CDB7DEB71982198286C08981882F90E0FD
:102D1000FC01EC50FE4F80818B32C9F58981882FF0
:102D200090E06C010894C11CD11C8981882F90E02F
:102D3000880F991F880F991FFC01EC55FE4FE0800A
:102D4000F180028113818981882F90E00196880F9C
:102D5000991F880F991FFC01EC55FE4F208131818E
:102D600042815381C801B7010E94F201DC01CB010D
:102D70009C01AD01C601880F991F880F991FFC01A6
:102D8000EC55FE4F208331834283538341C08981B8
:102D9000882F90E0FC01EC50FE4F80818D32C1F510
:102DA0008981882F90E06C010894C11CD11C898115
:102DB000882F90E0880F991F880F991FFC01EC5510
:102DC000FE4FE080F180028113818981882F90E09D
:102DD0000196880F991F880F991FFC01EC55FE4F33
:102DE0002081318142815381C801B7010E94C10114
:102DF000DC01CB019C01AD01C601880F991F880F32
:102E0000991FFC01EC55FE4F20833183428353838D
:102E100089818F5F89838981882F90E09C012F5F52
:102E20003F4F80910B02882F90E0281739070CF450
:102E30006CCF0F90CF91DF911F910F91FF90EF908A
:102E4000DF90CF90089597FB092E05260ED057FDF1
:102E500004D014D00AD0001C38F450954095309519
:102E600021953F4F4F4F5F4F0895F6F7909580950E
:102E7000709561957F4F8F4F9F4F0895A1E21A2E55
:102E8000AA1BBB1BFD010DC0AA1FBB1FEE1FFF1F0E
:102E9000A217B307E407F50720F0A21BB30BE40B5E
:102EA000F50B661F771F881F991F1A9469F76095A5
:102EB0007095809590959B01AC01BD01CF0108955F
:102EC0002F923F924F925F926F927F928F929F923A
:102ED000AF92BF92CF92DF92EF92FF920F931F9328
:102EE000CF93DF93CDB7DEB7CA1BDB0B0FB6F894D9
:102EF000DEBF0FBECDBF09942A88398848885F8419
:102F00006E847D848C849B84AA84B984C884DF8089
:102F1000EE80FD800C811B81AA81B981CE0FD11D6D
:102F20000FB6F894DEBF0FBECDBFED010895F89443
:022F3000FFCFD1
:102F32004E54492043414C4300416E730045727226
:102F42006F723A204469762E206279203021000087
:102F5200000000000000000001020203030303045A
:102F62000404040404040405050505050505050516
:102F720005050505050505060606060606060606F6
:102F820006060606060606060606060606060606DF
:102F920006060606060606070707070707070707C6
:102FA20007070707070707070707070707070707AF
:102FB200070707070707070707070707070707079F
:102FC200070707070707070707070707070707078F
:102FD2000707070707070708080808080808080876
:102FE200080808080808080808080808080808085F
:102FF200080808080808080808080808080808084F
:10300200080808080808080808080808080808083E
:10301200080808080808080808080808080808082E
:10302200080808080808080808080808080808081E
:10303200080808080808080808080808080808080E
:1030420008080808080808080808080808080808FE
:10305200080808080808080504030207060503070C
:1030620008092F0405062A0102032D43003D2B0007
:043072000080BFFF1C
:00000001FF
